{
  "_format": "hh-sol-artifact-1",
  "contractName": "WavePortal",
  "sourceName": "contracts/WavePortal.sol",
  "abi": [
    {
      "inputs": [],
      "stateMutability": "payable",
      "type": "constructor"
    },
    {
      "anonymous": false,
      "inputs": [
        {
          "indexed": true,
          "internalType": "address",
          "name": "from",
          "type": "address"
        },
        {
          "indexed": false,
          "internalType": "uint256",
          "name": "timestamp",
          "type": "uint256"
        },
        {
          "indexed": false,
          "internalType": "string",
          "name": "message",
          "type": "string"
        }
      ],
      "name": "NewWave",
      "type": "event"
    },
    {
      "inputs": [
        {
          "internalType": "uint256",
          "name": "",
          "type": "uint256"
        }
      ],
      "name": "CunstomerAdress",
      "outputs": [
        {
          "internalType": "address",
          "name": "",
          "type": "address"
        }
      ],
      "stateMutability": "view",
      "type": "function"
    },
    {
      "inputs": [
        {
          "internalType": "uint256",
          "name": "_i",
          "type": "uint256"
        }
      ],
      "name": "getAddress",
      "outputs": [
        {
          "internalType": "address",
          "name": "",
          "type": "address"
        }
      ],
      "stateMutability": "view",
      "type": "function"
    },
    {
      "inputs": [],
      "name": "getAllWaves",
      "outputs": [
        {
          "components": [
            {
              "internalType": "address",
              "name": "waver",
              "type": "address"
            },
            {
              "internalType": "string",
              "name": "message",
              "type": "string"
            },
            {
              "internalType": "uint256",
              "name": "timestamp",
              "type": "uint256"
            }
          ],
          "internalType": "struct WavePortal.Wave[]",
          "name": "",
          "type": "tuple[]"
        }
      ],
      "stateMutability": "view",
      "type": "function"
    },
    {
      "inputs": [],
      "name": "getTotalWaves",
      "outputs": [
        {
          "internalType": "uint256",
          "name": "",
          "type": "uint256"
        }
      ],
      "stateMutability": "view",
      "type": "function"
    },
    {
      "inputs": [
        {
          "internalType": "address",
          "name": "",
          "type": "address"
        }
      ],
      "name": "lastWaveAt",
      "outputs": [
        {
          "internalType": "uint256",
          "name": "",
          "type": "uint256"
        }
      ],
      "stateMutability": "view",
      "type": "function"
    },
    {
      "inputs": [
        {
          "internalType": "string",
          "name": "_message",
          "type": "string"
        }
      ],
      "name": "wave",
      "outputs": [],
      "stateMutability": "nonpayable",
      "type": "function"
    }
  ],
  "bytecode": "0x60806040526200004f6040518060400160405280601981526020017f57652068617665206265656e20636f6e737472756374656421000000000000008152506200007760201b620007ef1760201c565b606444426200005f91906200017c565b6200006b9190620001e6565b600181905550620002dc565b62000117816040516024016200008e9190620002b8565b6040516020818303038152906040527f41304fac000000000000000000000000000000000000000000000000000000007bffffffffffffffffffffffffffffffffffffffffffffffffffffffff19166020820180517bffffffffffffffffffffffffffffffffffffffffffffffffffffffff83818316178352505050506200011a60201b60201c565b50565b60008151905060006a636f6e736f6c652e6c6f679050602083016000808483855afa5050505050565b6000819050919050565b7f4e487b7100000000000000000000000000000000000000000000000000000000600052601160045260246000fd5b6000620001898262000143565b9150620001968362000143565b9250828201905080821115620001b157620001b06200014d565b5b92915050565b7f4e487b7100000000000000000000000000000000000000000000000000000000600052601260045260246000fd5b6000620001f38262000143565b9150620002008362000143565b925082620002135762000212620001b7565b5b828206905092915050565b600081519050919050565b600082825260208201905092915050565b60005b838110156200025a5780820151818401526020810190506200023d565b60008484015250505050565b6000601f19601f8301169050919050565b600062000284826200021e565b62000290818562000229565b9350620002a28185602086016200023a565b620002ad8162000266565b840191505092915050565b60006020820190508181036000830152620002d4818462000277565b905092915050565b61172f80620002ec6000396000f3fe608060405234801561001057600080fd5b50600436106100625760003560e01c8063449d46c0146100675780639a2cdc0814610083578063b93f9b0a146100a1578063bd43a908146100d1578063cb199503146100ef578063fcf175d81461011f575b600080fd5b610081600480360381019061007c9190610c81565b61014f565b005b61008b6105cb565b6040516100989190610ce3565b60405180910390f35b6100bb60048036038101906100b69190610d2a565b610616565b6040516100c89190610d98565b60405180910390f35b6100d9610653565b6040516100e69190610f62565b60405180910390f35b61010960048036038101906101049190610fb0565b6107a4565b6040516101169190610ce3565b60405180910390f35b61013960048036038101906101349190610d2a565b6107bc565b6040516101469190610d98565b60405180910390f35b6101da601e600360003373ffffffffffffffffffffffffffffffffffffffff1673ffffffffffffffffffffffffffffffffffffffff1681526020019081526020016000205461019e919061100c565b6040518060400160405280600481526020017f3a3a3a3a0000000000000000000000000000000000000000000000000000000081525042610888565b42601e600360003373ffffffffffffffffffffffffffffffffffffffff1673ffffffffffffffffffffffffffffffffffffffff16815260200190815260200160002054610227919061100c565b10610267576040517f08c379a000000000000000000000000000000000000000000000000000000000815260040161025e906110c3565b60405180910390fd5b42600360003373ffffffffffffffffffffffffffffffffffffffff1673ffffffffffffffffffffffffffffffffffffffff1681526020019081526020016000208190555060016000546102ba919061100c565b6000819055506103006040518060400160405280601681526020017f257320776176656420772f206d657373616765202573000000000000000000008152503383610927565b600460405180606001604052803373ffffffffffffffffffffffffffffffffffffffff16815260200183815260200142815250908060018154018082558091505060019003906000526020600020906003020160009091909190915060008201518160000160006101000a81548173ffffffffffffffffffffffffffffffffffffffff021916908373ffffffffffffffffffffffffffffffffffffffff16021790555060208201518160010190816103b891906112ef565b50604082015181600201555050606460015442446103d6919061100c565b6103e0919061100c565b6103ea91906113f0565b6001819055506104316040518060400160405280601681526020017f52616e646f6d20232067656e6572617465643a202564000000000000000000008152506001546109c6565b603260015410156105785761047b6040518060400160405280600881526020017f25732c20776f6e2100000000000000000000000000000000000000000000000081525033610a62565b6000655af3107a40009050478111156104c9576040517f08c379a00000000000000000000000000000000000000000000000000000000081526004016104c090611493565b60405180910390fd5b60003373ffffffffffffffffffffffffffffffffffffffff16826040516104ef906114e4565b60006040518083038185875af1925050503d806000811461052c576040519150601f19603f3d011682016040523d82523d6000602084013e610531565b606091505b5050905080610575576040517f08c379a000000000000000000000000000000000000000000000000000000000815260040161056c9061156b565b60405180910390fd5b50505b3373ffffffffffffffffffffffffffffffffffffffff167f5f7e16dc676677766a70e9c5628aa6c54ddb8b6e5188e2ae1e1f17f1ffbea71642836040516105c09291906115c4565b60405180910390a250565b600061060e6040518060400160405280601681526020017f7765206861766520256420746f74616c207761766521000000000000000000008152506000546109c6565b600054905090565b60006002600083815260200190815260200160002060009054906101000a900473ffffffffffffffffffffffffffffffffffffffff169050919050565b60606004805480602002602001604051908101604052809291908181526020016000905b8282101561079b57838290600052602060002090600302016040518060600160405290816000820160009054906101000a900473ffffffffffffffffffffffffffffffffffffffff1673ffffffffffffffffffffffffffffffffffffffff1673ffffffffffffffffffffffffffffffffffffffff16815260200160018201805461070090611112565b80601f016020809104026020016040519081016040528092919081815260200182805461072c90611112565b80156107795780601f1061074e57610100808354040283529160200191610779565b820191906000526020600020905b81548152906001019060200180831161075c57829003601f168201915b5050505050815260200160028201548152505081526020019060010190610677565b50505050905090565b60036020528060005260406000206000915090505481565b60026020528060005260406000206000915054906101000a900473ffffffffffffffffffffffffffffffffffffffff1681565b6108858160405160240161080391906115f4565b6040516020818303038152906040527f41304fac000000000000000000000000000000000000000000000000000000007bffffffffffffffffffffffffffffffffffffffffffffffffffffffff19166020820180517bffffffffffffffffffffffffffffffffffffffffffffffffffffffff8381831617835250505050610afe565b50565b6109228383836040516024016108a093929190611616565b6040516020818303038152906040527f37aa7d4c000000000000000000000000000000000000000000000000000000007bffffffffffffffffffffffffffffffffffffffffffffffffffffffff19166020820180517bffffffffffffffffffffffffffffffffffffffffffffffffffffffff8381831617835250505050610afe565b505050565b6109c183838360405160240161093f93929190611654565b6040516020818303038152906040527fe0e9ad4f000000000000000000000000000000000000000000000000000000007bffffffffffffffffffffffffffffffffffffffffffffffffffffffff19166020820180517bffffffffffffffffffffffffffffffffffffffffffffffffffffffff8381831617835250505050610afe565b505050565b610a5e82826040516024016109dc929190611699565b6040516020818303038152906040527fb60e72cc000000000000000000000000000000000000000000000000000000007bffffffffffffffffffffffffffffffffffffffffffffffffffffffff19166020820180517bffffffffffffffffffffffffffffffffffffffffffffffffffffffff8381831617835250505050610afe565b5050565b610afa8282604051602401610a789291906116c9565b6040516020818303038152906040527f319af333000000000000000000000000000000000000000000000000000000007bffffffffffffffffffffffffffffffffffffffffffffffffffffffff19166020820180517bffffffffffffffffffffffffffffffffffffffffffffffffffffffff8381831617835250505050610afe565b5050565b60008151905060006a636f6e736f6c652e6c6f679050602083016000808483855afa5050505050565b6000604051905090565b600080fd5b600080fd5b600080fd5b600080fd5b6000601f19601f8301169050919050565b7f4e487b7100000000000000000000000000000000000000000000000000000000600052604160045260246000fd5b610b8e82610b45565b810181811067ffffffffffffffff82111715610bad57610bac610b56565b5b80604052505050565b6000610bc0610b27565b9050610bcc8282610b85565b919050565b600067ffffffffffffffff821115610bec57610beb610b56565b5b610bf582610b45565b9050602081019050919050565b82818337600083830152505050565b6000610c24610c1f84610bd1565b610bb6565b905082815260208101848484011115610c4057610c3f610b40565b5b610c4b848285610c02565b509392505050565b600082601f830112610c6857610c67610b3b565b5b8135610c78848260208601610c11565b91505092915050565b600060208284031215610c9757610c96610b31565b5b600082013567ffffffffffffffff811115610cb557610cb4610b36565b5b610cc184828501610c53565b91505092915050565b6000819050919050565b610cdd81610cca565b82525050565b6000602082019050610cf86000830184610cd4565b92915050565b610d0781610cca565b8114610d1257600080fd5b50565b600081359050610d2481610cfe565b92915050565b600060208284031215610d4057610d3f610b31565b5b6000610d4e84828501610d15565b91505092915050565b600073ffffffffffffffffffffffffffffffffffffffff82169050919050565b6000610d8282610d57565b9050919050565b610d9281610d77565b82525050565b6000602082019050610dad6000830184610d89565b92915050565b600081519050919050565b600082825260208201905092915050565b6000819050602082019050919050565b610de881610d77565b82525050565b600081519050919050565b600082825260208201905092915050565b60005b83811015610e28578082015181840152602081019050610e0d565b60008484015250505050565b6000610e3f82610dee565b610e498185610df9565b9350610e59818560208601610e0a565b610e6281610b45565b840191505092915050565b610e7681610cca565b82525050565b6000606083016000830151610e946000860182610ddf565b5060208301518482036020860152610eac8282610e34565b9150506040830151610ec16040860182610e6d565b508091505092915050565b6000610ed88383610e7c565b905092915050565b6000602082019050919050565b6000610ef882610db3565b610f028185610dbe565b935083602082028501610f1485610dcf565b8060005b85811015610f505784840389528151610f318582610ecc565b9450610f3c83610ee0565b925060208a01995050600181019050610f18565b50829750879550505050505092915050565b60006020820190508181036000830152610f7c8184610eed565b905092915050565b610f8d81610d77565b8114610f9857600080fd5b50565b600081359050610faa81610f84565b92915050565b600060208284031215610fc657610fc5610b31565b5b6000610fd484828501610f9b565b91505092915050565b7f4e487b7100000000000000000000000000000000000000000000000000000000600052601160045260246000fd5b600061101782610cca565b915061102283610cca565b925082820190508082111561103a57611039610fdd565b5b92915050565b600082825260208201905092915050565b7f4d7573742077616974203330207365636f6e6473206265666f7265207761766960008201527f6e6720616761696e2e0000000000000000000000000000000000000000000000602082015250565b60006110ad602983611040565b91506110b882611051565b604082019050919050565b600060208201905081810360008301526110dc816110a0565b9050919050565b7f4e487b7100000000000000000000000000000000000000000000000000000000600052602260045260246000fd5b6000600282049050600182168061112a57607f821691505b60208210810361113d5761113c6110e3565b5b50919050565b60008190508160005260206000209050919050565b60006020601f8301049050919050565b600082821b905092915050565b6000600883026111a57fffffffffffffffffffffffffffffffffffffffffffffffffffffffffffffffff82611168565b6111af8683611168565b95508019841693508086168417925050509392505050565b6000819050919050565b60006111ec6111e76111e284610cca565b6111c7565b610cca565b9050919050565b6000819050919050565b611206836111d1565b61121a611212826111f3565b848454611175565b825550505050565b600090565b61122f611222565b61123a8184846111fd565b505050565b5b8181101561125e57611253600082611227565b600181019050611240565b5050565b601f8211156112a35761127481611143565b61127d84611158565b8101602085101561128c578190505b6112a061129885611158565b83018261123f565b50505b505050565b600082821c905092915050565b60006112c6600019846008026112a8565b1980831691505092915050565b60006112df83836112b5565b9150826002028217905092915050565b6112f882610dee565b67ffffffffffffffff81111561131157611310610b56565b5b61131b8254611112565b611326828285611262565b600060209050601f8311600181146113595760008415611347578287015190505b61135185826112d3565b8655506113b9565b601f19841661136786611143565b60005b8281101561138f5784890151825560018201915060208501945060208101905061136a565b868310156113ac57848901516113a8601f8916826112b5565b8355505b6001600288020188555050505b505050505050565b7f4e487b7100000000000000000000000000000000000000000000000000000000600052601260045260246000fd5b60006113fb82610cca565b915061140683610cca565b925082611416576114156113c1565b5b828206905092915050565b7f547279696e6720746f207769746864726177206d6f7265206d6f6e657920746860008201527f616e206861732074686520636f6e747261637420686173000000000000000000602082015250565b600061147d603783611040565b915061148882611421565b604082019050919050565b600060208201905081810360008301526114ac81611470565b9050919050565b600081905092915050565b50565b60006114ce6000836114b3565b91506114d9826114be565b600082019050919050565b60006114ef826114c1565b9150819050919050565b7f4661696c656420746f207769746864726177206d6f6e65792066726f6d20636f60008201527f6e74726163742e00000000000000000000000000000000000000000000000000602082015250565b6000611555602783611040565b9150611560826114f9565b604082019050919050565b6000602082019050818103600083015261158481611548565b9050919050565b600061159682610dee565b6115a08185611040565b93506115b0818560208601610e0a565b6115b981610b45565b840191505092915050565b60006040820190506115d96000830185610cd4565b81810360208301526115eb818461158b565b90509392505050565b6000602082019050818103600083015261160e818461158b565b905092915050565b600060608201905061162b6000830186610cd4565b818103602083015261163d818561158b565b905061164c6040830184610cd4565b949350505050565b6000606082019050818103600083015261166e818661158b565b905061167d6020830185610d89565b818103604083015261168f818461158b565b9050949350505050565b600060408201905081810360008301526116b3818561158b565b90506116c26020830184610cd4565b9392505050565b600060408201905081810360008301526116e3818561158b565b90506116f26020830184610d89565b939250505056fea26469706673582212202657cd7902824dcba7a92e76339470005a8f1eaf13d21b1088bac3f835d4d3af64736f6c63430008110033",
  "linkReferences": {},
  "deployedLinkReferences": {}
}